:020000040800F2
:10000000400B002025020008ED020008E502000870
:10001000E9020008D50200086D0300080000000096
:10002000000000000000000000000000F5020008D1
:10003000D902000800000000F1020008F9020008DF
:100040003F0200083F0200083F0200083F0200088C
:100050003F0200083F020008DD0200083F020008DE
:100060003F0200083F0200083F0200083F0200086C
:100070003F0200083F0200083F0200083F0200085C
:100080003F0200083F0200083F0200083F0200084C
:10009000610300083F0200083F0200083F02000819
:1000A0003F0200083F0200083F0200083F0200082C
:1000B0003F0200083F0200083F0200083F0200081C
:1000C0003F0200083F0200083F0200083F0200080C
:1000D0003F0200083F0200083F0200083F020008FC
:1000E0003F0200083F020008590300083F020008D1
:1000F0003F0200083F0200083F0200083F020008DC
:100100003F0200083F0200083F0200083F020008CB
:100110003F0200083F0200083F0200083F020008BB
:100120003F0200083F0200083F0200083F020008AB
:100130003F0200083F0200083F0200083F0200089B
:1001400000000000000000000000000000000000AF
:100150003F0200083F0200083F0200083F0200087B
:100160003F0200083F0200083F0200083F0200086B
:100170003F0200083F0200083F0200083F0200085B
:100180003F02000800F002F800F03CF80AA090E8F6
:10019000000C82448344AAF10107DA4501D100F042
:1001A00031F8AFF2090EBAE80F0013F0010F18BFD3
:1001B000FB1A43F001031847C0230000E0230000AE
:1001C000103A24BF78C878C1FAD8520724BF30C883
:1001D00030C144BF04680C60704700000023002455
:1001E00000250026103A28BF78C1FBD8520728BF47
:1001F00030C148BF0B6070471FB502F056F91FBDF4
:1002000010B510BD00F033F81146FFF7F5FF00F010
:10021000DDFD00F051F803B4FFF7F2FF03BC00F07E
:10022000A7F800000948804709480047FEE7FEE7B5
:10023000FEE7FEE7FEE7FEE7FEE7FEE7FEE7FEE796
:1002400004480549054A064B70470000FD020008B6
:100250008501000840050020400B002040070020D9
:1002600040070020704770477047704770477546D9
:1002700000F02CF8AE4605006946534620F0070012
:10028000854618B020B5FFF7DBFFBDE820404FF0F2
:1002900000064FF000074FF000084FF0000BAC468F
:1002A000ACE8C009ACE8C009ACE8C009ACE8C009DA
:1002B00021F007018D46704710B50446AFF300806A
:1002C0002046BDE81040FFF7A6BF00000048704779
:1002D00040010020FEE7000070470000012000F010
:1002E00081BB0000FEE70000FEE700007047000051
:1002F0007047000070470000704700004EF68850BD
:10030000CEF20000026841F2000142F47002C4F231
:10031000020102600A6842F001020A600A6892075C
:10032000FCD54A6822F003024A6000BF4A6812F016
:100330000C0FFBD10A684FF6FF73CFF6F2631A4039
:100340000A6000224A600A634FF41F028A604FF07D
:10035000006140F8801C70474FF4802000F042BBE1
:1003600040F20430C2F2000001F0D4BFFEE700000A
:100370007047000045F60402C4F201021368002829
:1003800023F0020318BF02331360106861F300000A
:100390001060704745F60C01C4F201010860704717
:1003A00045F61001C4F201010860704745F61401DA
:1003B000C4F20101086070472DE9F04182B00420C9
:1003C00000F0EAFE40F23810C2F2000000684DF67C
:1003D0008361C4F21B31A0FB0101880C40F2A8111B
:1003E000C2F20001086008684FF47A71484340F295
:1003F000A411C2F2000140F210180860C2F2000815
:10040000D8F80000012100F00DFA6C46204600F0FB
:1004100025FC40F21C16C2F2000640F22415318879
:10042000C2F2000540F200472868C0F210170091A0
:100430002146019700F062FCD8F80400012100F089
:10044000F1F96C46204600F009FC7188686800915B
:100450002146019700F052FCD8F80800012100F075
:10046000E1F96C46204600F0F9FBB188A8680091DC
:100470002146019700F042FC308800281CBF296803
:100480000861708800281CBF69680861B08800286E
:100490001CBFA96808610220C0F2180001210125D3
:1004A00000F0C0F96C46204600F0D8FB42F6000090
:1004B000C0F20010CDE9005040F60000C4F2010087
:1004C000214600F01BFC02B0BDE8F08170B540F29F
:1004D000A015C2F20005287840F60004C4F2010419
:1004E00070BB20460121012600F068FC40B340F2B9
:1004F000A4102E70C2F2000001684EF2100001EB51
:100500008101CEF200004900416000218160016854
:1005100041F00101016000BF016801F001110129F2
:10052000FAD00168002521F00101016085602046B4
:10053000012100F043FC002808BF0125284670BDBA
:100540002046012100F03AFC002804BF002028705A
:100550000125284670BD000002280FD840F21C116A
:10056000C2F2000131F81010002908BF704740F2B4
:100570002412C2F2000252F820000161704700000C
:1005800002280FD840F21C11C2F2000131F81010FD
:10059000002908BF704740F22412C2F2000252F84C
:1005A000200041617047000080B5812101F0D2FC3C
:1005B000002080BDB0B5416800254C6A002101F0E3
:1005C0007FFE94F8560009284FF0000008BF84F819
:1005D0005650B0BD00207047022904D14068012167
:1005E000406A80F8541000207047000040680122E3
:1005F000416A002081F855207047000010B541681D
:1006000003224C6A8121402301F0E4FC01210020F7
:1006100084F8551010BD00000020704780B50A46D0
:1006200041681378496A13F0600310D0202B1ED163
:100630005378A3F1020CBCF1090F18D8DFE80CF0D5
:10064000054517171717171B242804313DE0537869
:10065000A3F1010CBCF10A0F09D8DFE80CF0060881
:100660000608081D080808353B00002080BD01F081
:1006700075FA002080BD0923D28881F856300C31EC
:1006800001F036FA002080BDD0784860002080BD9F
:1006900090780860002080BDD17840F2780C0B0281
:1006A000D1880922B3F5085F08BF3F228A4228BFDC
:1006B0000A4640F21001C2F20001C2F2000CB3F58A
:1006C000085F08BF614601E00831012201F030FAFD
:1006D000002080BD50888860002080BD00207047C9
:1006E00041F20401C4F202010A6800F00F0022F096
:1006F000F00242EA001008607047000041F2040175
:10070000C4F202010A6800F0070022F4E06242EA43
:10071000002008607047000041F20401C4F20201A9
:100720000A6800F0070022F4605242EAC020086024
:100730007047000041F25401C4F202010A68012826
:1007400022F0300208BF30320A607047042888BFA8
:100750007047DFE800F0030C19262F0041F200007B
:10076000C4F20200026861F300020260704741F2C5
:100770000000C4F20200026801F0010122F480329C
:1007800042EA01410160704741F20000C4F20200F8
:10079000026801F0010122F0807242EA0161016009
:1007A000704741F20000C4F20200026A61F30002E5
:1007B0000262704741F20000C4F20200426A61F333
:1007C000000242627047000041F20002010CC4F2D4
:1007D0000202895800F01F0021FA00F000F0010029
:1007E0007047000041F25401C4F202010A6800F0AF
:1007F000030022F4405242EA0030086070470000D3
:1008000041F200010020C4F2020100BF0A68920315
:1008100004D4B0F5405F00F10100F7D30868C0F3DD
:100820004040704741F2000200F01F034FF0010CFE
:10083000C4F2020201290CFA03F14FEA1040835876
:1008400014BF23EA010119438150704780B541F27A
:10085000040EC4F2020EDEF800C070B14CF4803316
:10086000CEF80030DEF800C0012814BF4CF4003090
:100870002CF40030CEF8000009E02CF48030CEF8E3
:100880000000DEF82C0040F00070CEF82C00DEF8FE
:10089000000061F39540CEF80000DEF80000090981
:1008A00061F35E70CEF80000DEF8000020F000403A
:1008B00040EAC270CEF8000080BD000041F20000A6
:1008C000C4F20200016841F001010160016889077A
:1008D000FCD5416821F00301416000BF416811F07F
:1008E0000C0FFBD101684FF6FF72CFF6F262114098
:1008F00001600021416001634FF41F018160704776
:1009000041F20401C4F202010A6860F301020A60C4
:100910007047000041F20400C4F202000068C0F316
:100920008100704741F20401C4F202010A6860F3D9
:1009300097520A600A68800860F3DB620A607047B9
:1009400041F254010128C4F2020109D151F8242CCA
:1009500042F0007241F8242C0A6842F400720A60E6
:100960000A6800F0010022F4807242EA0020086068
:100970007047000080B5002808BF80BD4EF210010E
:1009800040F2A41ECEF20001C2F2000E4FF0320C73
:10099000002300BF82B2332A06D3DEF800203238AB
:1009A00002FB0CF24A6004E0DEF8000050434860AD
:1009B00000208B600A6842F001020A600A6802F0B7
:1009C0000112012AFAD00A6822F001020A60020428
:1009D0008B60DFD180BD00000021416001210181D9
:1009E0000170704740F21441C4F2010151F8042C27
:1009F00008600240824208BF0860704740F2084128
:100A0000C4F20101426851F8083C934341F8083CA4
:100A100051F8043C934341F8043C437A002B08BF4F
:100A2000704703786FEA020C2BB151F8043C134372
:100A300041F8043C04E051F8083C134341F8083CF9
:100A40000B6803EA0C030B604B6803EA0C034B6072
:100A5000007A012807D018B9086810430860704769
:100A600008681043086048681043486070470000F9
:100A700080B542F26050C0F6000040F2AC1C013874
:100A80004B236FF00102C2F2000C4FF0000E00BFCA
:100A90000CEB02010B71837802321C2A00F1010079
:100AA00081F805E0F4D14FF44870ACF8000040F252
:100AB0003450C2F2000020210180C0F804C080BD83
:100AC00040F20000C2F200007047000040F208004F
:100AD000C2F200007047000080B542F24D50C0F6EF
:100AE000000040F2AC1C01384B236FF00102C2F24F
:100AF000000C4FF0000E00BF0CEB02010B7183786D
:100B00000232222A00F1010081F805E0F4D140F21E
:100B10002630ACF8000040F23450C2F2000026212A
:100B20000180C0F804C080BD40F20810C2F200008D
:100B30007047000080B542F27050C0F6000040F2ED
:100B4000AC1C013841236FF00102C2F2000C4FF0DF
:100B5000000E00BF0CEB02010B71837802320A2AEF
:100B600000F1010081F805E0F4D140F20E30ACF85C
:100B7000000040F23450C2F200000E210180C0F8A3
:100B800004C080BD0020704780B542F24450C0F6DA
:100B9000000040F2AC1C01384B236FF00102C2F29E
:100BA000000C4FF0000E00BF0CEB02010B718378BC
:100BB00002320E2A00F1010081F805E0F4D140F282
:100BC0001230ACF8000040F23450C2F200001221A2
:100BD0000180C0F804C080BD0020704770B54FF29E
:100BE000E870C1F6FF7001688268891831D04068EA
:100BF00040F2200C6FF00102C2F2000C4FF0370EF1
:100C0000002300BF0CEB02050EEB1176B1F1204F73
:100C100002F102024FEA117438BF04F130060901F3
:100C20000E2A2E716B71EDD10CF1100104224FF0E0
:100C3000370C00230CEB1075B0F1204F4FEA107603
:100C400038BF06F1300501F8025F0001013A4B7030
:100C5000F0D140F23010C2F2000070BD40F200420C
:100C60004FF6FF71C0F20012C0E900127047000099
:100C700080B58B08032B88BF80BD0C2202EA810E51
:100C80004FF00F0C02EB83010CFA0EF2DFE803F0D9
:100C900002290F1C0821C4F201010B6800FA0EF0B2
:100CA00023EA02020A600A681043086080BD082136
:100CB000C4F201018B6800FA0EF023EA02028A6096
:100CC0008A681043886080BD0821C4F20101CB68A6
:100CD00000FA0EF023EA0202CA60CA681043C86034
:100CE00080BD0821C4F201014B6800FA0EF023EA2E
:100CF00002024A604A681043486080BDB0B58B79F3
:100D00000A88032B0BD07BB94979282901F00F0EF3
:100D100018D0182908BF0261110616D12EE04FF035
:100D2000000E110611D129E003F0080C0B79C979E6
:100D300003F00403634401F0030103EB010E110609
:100D400003D11BE04261110618D000234FF00F0CB5
:100D5000002104E00131082903F104030ED022FA36
:100D600001F4E407F6D004680CFA03F5AC43046020
:100D700004680EFA03F52C430460EBE7B2F5807FBC
:100D800038BFB0BD120A00234FF00F0C002104E061
:100D90000131082903F104030ED022FA01F4E4071B
:100DA000F6D044680CFA03F5AC43446044680EFA8C
:100DB00003F52C434460EBE7B0BD000080680840B9
:100DC000401AB0FA80F040097047000084B0032058
:100DD00000F000F900F02EF9FFF7EEFA01200126ED
:100DE00000F0F8F94FF01C100121FFF71BFD4FF444
:100DF000C0100121FFF716FD002000210025FFF79C
:100E000037FF01AC2046FFF7E7FD02964FF48076EE
:100E100020468DF80450ADF80C60FFF7EFFD03207D
:100E200000F0D8F806200021002200F099F801AC6B
:100E30002046FFF7D1FD4FF48020029020468DF828
:100E40000450ADF80C60FFF7D9FD2A2000210022E4
:100E500000F086F81720C0F21C000121FFF7E2FC29
:100E600014200021002200F07BF840F20434C2F28A
:100E7000000440F2B80240F2E00345F60041C2F23D
:100E80000002C2F20003C4F200012046009500F007
:100E90007BFD204600F0FAFC0FF2B008FFF716FBCE
:100EA00070BB204600F0F6FC03281CD160680026C9
:100EB000476A00BF97F855000128FBD118F80610C3
:100EC000204687F8555000F037FC00BF97F85500D2
:100ED0000128FBD12046002187F8555000F02CFC5A
:100EE0000136102EE6D1204600F0D4FC042807D1AC
:100EF00094F82702012803D1204601F091FA00BF9F
:100F00006068406A90F854000128C7D10020FFF7BC
:100F100023FB0120FFF720FB0220FFF71DFB012030
:100F200000F07EF8002000F065F800F0BBF8606883
:100F3000406A80F854500020FFF722FB0120FFF7A1
:100F40001FFB0220FFF71CFBA8E700BF204B6579C1
:100F5000626F6172642044656D6F0D0A00000000CD
:100F6000B0B54EF60C5ECEF2000EDEF800304FF05B
:100F7000FF35C3F3022383F00704042C28BF0424A5
:100F8000033B05FA04F438BF0023A143994005FA56
:100F900003F39A4300F00F03043B4EF2001C73442A
:100FA000CEF2000C11430C33B0F1FF3F4FEA0111B8
:100FB00000EB0C02C8BF02F540730028197048BF4F
:100FC000B0BD00F01F01012202FA01F140094CF806
:100FD0002010B0BD4EF60C51CEF200010A684FF65B
:100FE000FF031A4060F30A2242F0806040F0FD7077
:100FF000086070474EF61051CEF200010A6842F0C8
:1010000004020A6028B1012804D140BF20BF20BFDC
:1010100000E030BF086820F004000860704700005E
:1010200047F20001C4F200010A6860F300020A609E
:101030007047000080B5FFF741FC01200121FFF758
:1010400085FB00BFFFF7DCFB0028FBD002202F212F
:101050000122FFF7FBFB0020FFF7C4FB0220012168
:10106000FFF774FB1920FFF7AFFB0128FAD100202E
:10107000FFF736FB0420FFF74FFB0420FFF73EFB92
:101080000120FFF757FB0220FFF73AFCFFF742FC75
:101090000228FBD10020FFF74DFBBDE8804000F0A7
:1010A00021B8000080B501200121FFF74FFB00BFF0
:1010B000FFF7A6FB0028FBD002200121FFF746FB2B
:1010C0001920FFF781FB0028FAD00120FFF732FB3F
:1010D0000220FFF715FC00BFFFF71CFC0228FBD124
:1010E00080BD0000B0B541F2040441F20025C4F215
:1010F0000204C0F27A05FFF70DFC02280BD0A0BB5A
:10110000206D800531D5E06A800144BF46F6004578
:10111000C0F2DC2529E0D4F800C021682268C1F3C0
:101120008341C2F341721301581C0F29034618BFB3
:101130000223002A18BF03465FEACC3003EB01000C
:1011400006D440F60011C0F23D0100FB01F50CE0B1
:101150002168890301D4454307E0216DC1F30131C2
:101160000231B5FBF1F101FB00F540F23810C2F29B
:1011700000000560216804A2C1F30311515C0268FC
:1011800022FA01F10160B0BD000000000000000083
:1011900001020304060708094EF21001CEF2000115
:1011A0000A68042822F0040208BF04320A6070476B
:1011B00040F23A00C2F20000402101807047000076
:1011C00040F23A02C2F2000211880B18084613805E
:1011D0007047000080B508B340F23810C2F200003A
:1011E000006840F6FF51C0F22771884231DD47F6B2
:1011F000FF11C0F60321884242DC40F60061C0F2D4
:10120000277188424ED044F20041C0F695018842D1
:101210005CD10520BDE88040FFF784BB0120FFF7CB
:101220008FFB1620C0F218000121FFF7FBFA41F6F0
:101230002C70FFF7AFF84FF4FA50FFF7B1F841F612
:101240005470FFF7B3F802200121BDE88040FFF79A
:1012500091B846F60041C0F2DC21884227D04AF21C
:101260000021C0F24A41884226D04DF60001C0F26A
:10127000B85188422AD10320BDE88040FFF752BB15
:1012800047F60021C0F6032188421AD04BF2000134
:10129000C0F67131884218BF80BD0620BDE880408D
:1012A000FFF740BB0220BDE88040FFF73BBB0120B9
:1012B000BDE88040FFF736BB0020BDE88040FFF767
:1012C00031BB0420BDE88040FFF72CBB80BD00008F
:1012D000016C21F002010164016E21F0020101663E
:1012E0007047000080B2FFF745BB0000016C21F0A1
:1012F000010101640021416401658021C164016C28
:1013000041F41E4101647047016C41F00801016421
:10131000016C41F00401016470470000B0B5887AA7
:1013200045F600450028C4F200054AD00A7855F871
:1013300022305B060BD555F822C040F60F730CEA3D
:10134000030C48F2C00343EA0C0345F822300A7844
:1013500055F822305B040BD555F822C040F60F73C8
:101360000CEA030C4CF2800343EA0C0345F82230EC
:101370000A788B7855F8220040F60F7420404CF222
:101380008004012B08BF48F2C004204445F8220025
:101390000A7843F60F7C48F2800E40F63F7355F80A
:1013A0002200184040EA0E0045F82200087848F272
:1013B000800255F8201001EA0C01114345F8201075
:1013C000B0BD0A788B7855F822C0012B09D15FEAAD
:1013D0004C6340F63F7CE9D548F2C00E40F60F73EF
:1013E000DDE75FEA4C4343F60F7CDFD54CF2800E1D
:1013F00040F60F73D3E700002DE9F0430A7845F675
:101400000040C4F2000050F8223048F680774E7851
:101410003B40334340F82230CB78032B0AD84FF4BB
:101420000072DFE803F00B02070901228A724FF411
:10143000806203E0002201E04FF4C0620B7848F6BE
:101440008F1650F8237037403A4340F823208B78AA
:101450008A7A012B55D1002A00F08F800A7840F655
:101460000F6750F8223040F23C063B4048F28017AC
:101470003B4340F822308B88076D0A78C2F20006A1
:10148000356807EBC20745F81730CB88076D36681B
:1014900007EBC20706EB4707BB6050F822305B063C
:1014A00009D550F8223040F60F773B4048F2C0078C
:1014B0003B4340F822300A7850F822305B0409D5CB
:1014C00050F8223040F60F773B404CF280073B4308
:1014D00040F822300A7840F60F7750F822303B402F
:1014E0004CF280073B4340F822300A7843F60F77EE
:1014F00050F822303B4048F280073B4340F822300E
:1015000055E0002A60D00A7840F60F6750F8223084
:1015100040F23C0C3B4048F280173B4340F82230FD
:101520008B88076D0A78C2F2000CDCF8006007EBCC
:10153000C20746F81730CB88076DDCF8006007EB70
:10154000C20706EB4707BB60036DDCF8007003EBD6
:10155000C2050B8948F2000E4FEAC2093E1D3F2B1F
:10156000CFF6FF7E63D35F094FF0FF38DC0608BF7C
:1015700008EB53174EEA87275EE040F23C068B8863
:10158000076D0A78C2F20006366807EBC20746F814
:10159000173050F822305B0609D550F8223040F65B
:1015A0000F773B4048F2C0073B4340F822300978B0
:1015B00040F63F7350F821201A4048F2A0035A40E9
:1015C00040F82120BDE8F08340F23C06CB88076D4F
:1015D0000A78C2F20006356807EBC20705EB470739
:1015E000BB6050F822305B0409D550F8223040F639
:1015F0000F773B404CF280073B4340F82230036DAD
:101600000A780D89316803EBC2033F2D01F10C010B
:101610006FD36F094FF0FF36EC0608BF06EB551786
:1016200048F20006CFF6FF7646EA872766E00124F7
:101630009C4304EB5304A702BCB246F81540046D6A
:10164000DCF800704C443F2B07F10C0609D35F090E
:101650004FF0FF3CDD0608BF0CEB53174EEA872323
:1016600004E001279F4307EB53039B029BB246F81C
:10167000143050F822305B0609D550F8223040F67D
:101680000F773B4048F2C0073B4340F822300A78CE
:1016900050F822305B0409D550F8223040F60F771D
:1016A0003B404CF280073B4340F822300A7840F63A
:1016B0000F7750F822303B4048F2C0073B4340F8D8
:1016C00022300A7843F60F7750F822303B404BF235
:1016D00080077B4040F82230097840F63F7350F88D
:1016E00021201A4048F280031A4340F82120BDE827
:1016F000F0830127AF4307EB5507BF02BFB241F8A4
:10170000137050F8221043F60F7319404BF2800308
:10171000594040F82210BDE8F0830000016C21F030
:1017200008010164016C21F00401016470470000AC
:10173000C943416470470000B0B54268044680293F
:1017400002D90021002009E042F2C440C0F60000A6
:10175000415C022301F07F0003EA9111556AB8B1A0
:1017600095F85720824213D1002085F84C0085F867
:101770004E00204600F08EF8032818BFB0BD05F1DA
:101780004C02204681210823BDE8B04000F064BC33
:1017900085F84E00204685F84C1000F07BF80328B1
:1017A000EDD0B0BD002A08BF704740F23C03C2F242
:1017B00000031B6801324FEA520C03EB4103012185
:1017C000BCF1010F88BF510802381A1F32F8043FDC
:1017D000013920F8023FF9D170470000016C21F077
:1017E0001001016470470000016C41F010010164B8
:1017F00070470000C26C61F30602C264C16C41F024
:101800008001C16470470000002A08BF704740F2A1
:101810003C03C2F200031B6801324FEA520C03EB97
:1018200041030121BCF1010F88BF510802381A1F82
:1018300030F8023F013922F8043FF9D17047000027
:1018400080B54AB201F07F0100EB411000F10C01BC
:10185000B2F1FF3FC8BF00F5867140F63F70C8BFC8
:1018600043F60F700B7845F6004CC4F2000C5CF8A0
:1018700023E048F2B00200EA0E00C8BF4BF280023B
:1018800050404CF823000020C87280BD0068FFF76C
:101890001FBD000090F82402704700002DE9F041C0
:1018A000044669B160684269002A08BFBDE8F0815A
:1018B00094F8240203281FD12046BDE8F0411047C8
:1018C00094F82002022817D101F07F0604EB461598
:1018D0002F4637F8260F37F8123C98420ED9C61A11
:1018E000B0B22A6A984238BF0346204600213E80A3
:1018F000BDE8F04100F0B0BBBDE8F081284630F80B
:10190000241F45F600479942C4F2000720D1298DD3
:1019100099421DD3B4F82222914219D24FF0000807
:10192000A0F80080204600210022002300F094FB54
:10193000C5F82081C5F81A8157F8260043F60F71C3
:1019400008404BF28001484047F82600BDE8F0818E
:101950006068C16829B194F82402032801D12046A7
:101960008847052084F820020020C4F82001C4F82C
:101970001A01386843F60F7108404BF28001484065
:101980003860BDE8F0810000B0B58C4680E80E00FC
:101990004FF0010E00F1100300210022002480F816
:1019A00024E200BF8518995220322C736C73B2F573
:1019B000807F04F1010485F80EE029626983C5F88F
:1019C0001210EFD100210022002300BF8518203221
:1019D00085F80C3185F80D31B2F5807F03F10103F4
:1019E00085F80E11A5F81411C5F82011A5F81A11E3
:1019F000C5F81011EAD16046BDE8B040FFF776BCEB
:101A000010B5044659B160688269A2B394F8240203
:101A1000032818BF10BD2046BDE81040104794F8B9
:101A20002002032827D101F07F0004EB4011B1F818
:101A30002631B1F8142193421ED99B1A01F5937CEB
:101A40009CB2ACF80030944228BF14460023D4FA6C
:101A500052F2A1F81C31A1F81A2145F60041C4F256
:101A6000000151F8202043F60F731A404BF2800317
:101A70005A4041F8202010BD6068016909B1204634
:101A800088474FF0040C204600210022002384F8F0
:101A900020C2BDE8104000F0DFBA000010B50446D7
:101AA00000F5037004F5057100F0F4FC012084F8E2
:101AB000200294F80C02B4F8121200F01F00022861
:101AC000A4F8221209D001280CD0002818BF10BD9C
:101AD0002046BDE8104000F065B82046BDE8104043
:101AE00000F080B92046BDE8104000F0F1BB0000D6
:101AF000032380F82032B0F91431C0F820110021FE
:101B0000A0F81C11D2FA53F1A0F82821A0F8262140
:101B1000A0F81A1145F60040C4F20000016843F62F
:101B20000F7211404BF2800251400160704700007B
:101B300013460A464FF0020C00210385C38480F847
:101B400020C200F089BA00004FF0040C00210022EE
:101B5000002380F820C200F07FBA000080B590F822
:101B60000C1145F6004CC4F2000C5CF8213043F631
:101B70000F721A4049F280035A404CF821204FF06E
:101B8000010E027B80F817E15CF8223040F63F71CD
:101B9000194048F2900359404CF8221080F817E0A1
:101BA00080BD0000B0B5044690F80C0204F5037146
:101BB00010F0600F05D060688268204690470020D2
:101BC000B0BD94F80D02092833D8DFE800F0051AFB
:101BD000323732476032718194F8240200F0FE00FF
:101BE000022840F0828094F8270228B1B4F82A0233
:101BF00040F00200A4F82A0204F22A212046022220
:101C0000E1E094F8240200F0FE0002286DD1B4F85F
:101C10000E02012810D1002084F82702B4F82A020D
:101C2000626820F002009268A4F82A0220469047D9
:101C30000FE02046FFF792FF0020B0BDB4F80E027F
:101C40000128F9D1606801228368204684F82722A0
:101C500098472046FFF778FF0020B0BDB4F8100287
:101C6000002842D1B4F8120200283ED194F8240290
:101C700003283AD094F80E0210F07F0084F8260270
:101C80004FF0020008BF012084F82402E1E7B4F815
:101C90000E024FF0FF3202EB1022062A25D8DFE8B1
:101CA00002F004292D2424382400A068006823E0D1
:101CB000B4F81202012818D194F8240203282DD078
:101CC000022812D1002004F50A7184F8280227E0C6
:101CD000B4F81012B4F80E0240F23055C2F200050A
:101CE000287011B9B4F81212E9B12046FFF736FF97
:101CF0000020B0BDA0688068804753E0C0B20528CE
:101D000036D8DFE800F0033C3F424548A068006950
:101D100043E02046FFF722FF002043E004F22921A0
:101D2000204601224FE094F82412C0B203290CD0BF
:101D30000229DAD100283FF48CAF84F829026068C8
:101D40000321026884F824120FE000283FD094F8A1
:101D5000291281427FF47DAF606841682046884740
:101D600060682978026884F829122046904770E755
:101D70006068826820469047002000210FE0A0683C
:101D800040690AE0A068806907E0A068C06904E0D3
:101D9000A068406A01E0A068006A8047012100292C
:101DA0003FF44AAF00283FF447AF0388002B3FF4CD
:101DB00043AFB4F81222002A3FF43EAF4168934289
:101DC00038BF1A462046FFF7B3FE0020B0BD626858
:101DD000022184F82412516884F829022046884799
:101DE00037E7000070B5044690F80C0204F503755F
:101DF00010F0600F06D06068294682682046904740
:101E0000002070BD94F80D12B4F8100203291BD005
:101E1000012922D079BB94F82412032935D0022954
:101E20002ED110F07F0600F0800503D0C1B220460D
:101E300000F00AFB04EB461000F10C01002D08BF76
:101E400000F5867100202FE094F82412032933D086
:101E5000022915D1410608D110E094F82412032973
:101E60003AD002290CD1410608D0C1B2204600F078
:101E7000EBFA002070BD2046FFF770FE002070BD19
:101E80002046FFF76BFE002070BD00F07F0104EBE1
:101E9000411202F10C01000658BF02F58671C87AA2
:101EA0000138B0FA80F0400921F80C0F20460222D8
:101EB000FFF73EFE002070BDB4F80E1231B910F0ED
:101EC0007F0103D0C1B2204600F0BEFA6068294607
:101ED0008268204690470EE0B4F80E120029CDD15A
:101EE000410608D0C1B22046FFF7AAFC6068294627
:101EF0008268204690472046FFF726FE002070BDEE
:101F00000068FFF701BA000010B50446807A70B18E
:101F1000A08818B92089FFF753F9A080E08800282D
:101F200018BF10BD2089FFF74BF9E08010BDA078E5
:101F3000012807D1A0880028F8D12089FFF740F9AF
:101F4000A08010BDE0880028F0D12089FFF738F983
:101F5000E08010BD4AB201F07F0100EB4113006840
:101F600003F58671002A48BF03F10C01FFF7D6B9CB
:101F700010B500F1100E00224FF0010C00230021DB
:101F8000C4182EF80320203321736173B3F5807FCA
:101F900001F1010184F80EC022626283C4F81220AC
:101FA000EED10021002200238418203284F80C3165
:101FB00084F80D31B2F5807F03F1010384F80E112E
:101FC000A4F81411C4F82011A4F81A11C4F81011BF
:101FD000EAD110BDB0B54DB2046801F07F01002D0B
:101FE00000EB411005D4002100F5867580F80E1134
:101FF00003E000F10C0501218173581C20F0010061
:1020000028812846EA70FFF77FFF20462946BDE871
:10201000B040FFF7F1B9000001F07F0100EB411083
:10202000C0F82021B0F914214FF0000CD3FA52F27D
:10203000A0F81CC1A0F81A2145F60040C4F2000027
:1020400050F8212043F60F731A404BF280035A4098
:1020500040F8212070470000F0B581B001F07F0604
:10206000016800EB4610858A1C46002302628383C8
:10207000D4FA55F3A54238BF2C46857D45F6004776
:10208000C4F20007438384840DB351F8263040F234
:102090003C013D6DC2F2000109685B0605EBC60319
:1020A00001EB430159BF4C601030CC601230018805
:1020B00010462246FFF7A8FB57F8260040F60F719E
:1020C00008404CF28001084347F826000FE0018ADF
:1020D00010462246FFF798FB40F23C01386DC2F2F1
:1020E0000001096800EBC60001EB4000446057F8AE
:1020F000260040F63F71084048F2B001484047F8DA
:10210000260001B0F0BD00002DE9F0410446006852
:102110000D4650F82110080629D408054DD40804AE
:1021200058BFBDE8F08145F60048C4F2000858F8F1
:10213000250040F68F72104048F8250004EB451743
:1021400097F81601002872D040F23C00D8F85030C1
:10215000C2F2000002684904D7F8200103EBC50170
:1021600002EB410179D4CE68B7F8121178E045F658
:102170000040C4F2000050F8251048F60F721140DC
:1021800040F8251040F23C01006DC2F200010968E0
:1021900000EBC50001EB4000416804EB4510026A0A
:1021A0006FF39F210A44818302626DB3438B5BB35B
:1021B00020462946FFF750FF2AE045F60046C4F2C4
:1021C000000640F23C01306DC2F20001096800EBEC
:1021D000C50001EB4000C26804EB45106FF39F227D
:1021E000B0F81211A0F81C2104F50570FFF7DAFA17
:1021F000306840F68F7100EA0102204629463260BD
:10220000BDE8F041FFF74ABC20462946FFF746FBF0
:1022100094F82402022808D194F8261229B12068E3
:10222000FFF7E8FA002084F82602BDE8F08140F2CA
:102230003C01D8F85000C2F20001096800EBC5006B
:1022400001EB4000C668D7F82001B7F812116FF310
:102250009F263246FFF7A6FA11E04E68B7F8101134
:102260006FF39F263246FFF79DFA58F8250040F697
:102270000F71084048F2C001084348F82500B7F83C
:102280001C01B7F81A313044A7F81C01D7F8200117
:10229000002B00EB0602C7F8202118BF002D05D146
:1022A00020462946BDE8F041FFF7AABBB7F8140164
:1022B0008642F5D320462946BDE8F041FFF7ACBE83
:1022C00001F07F0100EB4110B0F81C0170470000E5
:1022D000B0B5044690F82402013802280ED8606890
:1022E00004F50371826820469047B4F8121205463F
:1022F000002908BF002D07D02846B0BD2046FFF7B3
:102300002DFC00252846B0BD2046FFF71DFC2846C1
:10231000B0BD0000F0B581B004680546676C266C5E
:10232000380471D4780522D520464FF48061FFF738
:10233000FFF9FEF73DFF2846FFF71AFE2846002169
:1023400000224023FFF746FE28468021002240233A
:10235000FFF740FE28680021FFF74CFA6868026A20
:10236000012085F8240212B1284601219047B805C2
:102370000CD516F4007009D020464FF40071FFF719
:10238000D7F96868C16909B128468847F80507D5B3
:1023900016F4807004D020464FF48071FFF7C8F91E
:1023A000380517D516F4006014D020464FF40061AC
:1023B000FFF7BEF995F8240285F82502042085F878
:1023C00024022846FFF79CFD6868026A12B128467D
:1023D00002219047F80421D516F480501ED02868B9
:1023E000FFF79CF96868026A95F8250285F82402CF
:1023F00012B128460321904720464FF4805101B086
:10240000BDE8F040FFF794B9606C01047FF58AAF36
:1024100000F00F012846FFF777FEF5E701B0F0BDA9
:1024200010B5044690F82512006884F82412FFF7CE
:1024300075F92068FFF7D8F90A20FEF753FF2068E6
:10244000BDE81040FFF7CAB980B54AB201F07F017C
:1024500000EB411000F10C01B2F1FF3FC8BF00F5E5
:10246000867140F63F70C8BF43F60F700B7845F693
:10247000004CC4F2000C5CF823E048F2900200EA41
:102480000E00C8BF49F2800250404CF823000120E2
:10249000C87280BD0A7802704A7842704A884280C9
:1024A0008A888280C988C1807047F1EE100A4FF691
:1024B000FF71C0F2C03120EA010040F04070E1EE4F
:1024C000100A704700000000000000002A2B2800BE
:1024D00000000000000000000000000000000000FC
:1024E000000000002C9EB4A0A1A2A434A6A7A5AE13
:1024F000362D3738271E1F20212223242526B333CB
:10250000B62EB7B89F8485868788898A8B8C8D8EF6
:102510008F909192939495969798999A9B9C9D2FC2
:102520003130A3AD350405060708090A0B0C0D0E62
:102530000F101112131415161718191A1B1C1DAFA2
:10254000B1B0B5004B6579626F617264004B65791B
:10255000626F61726420496E7465726661636500C2
:102560004B6579626F61726420436F6E66696700C4
:1025700041727465727900009825000800000020FF
:1025800040010000C0010008D826000840010020DA
:10259000000A0000DC0100082200000040000020CA
:1025A0001200000064000020092110010001223FF8
:1025B00000000000040309041A03000000000000EA
:1025C000000000000000000000000000000000000B
:1025D000000040000060004009022200010100E00C
:1025E000320904000001030101000921100100016A
:1025F000223F000705810340000A0000120100028B
:10260000000000403C2E4060000201020301000077
:1026100005010906A101050719E029E715002501B3
:10262000750195088102950175088103950575016D
:102630000508190129059102950175039103950675
:102640007508150025FF0507190029658100C000E0
:10265000FD050008A90500081D060008D5050008AD
:10266000B5050008ED05000819060008DD0600089C
:10267000D9050008AC020020CD0A0008D90B0008DB
:10268000C10A0008850B0008290B0008350B00085B
:10269000890B0008DD0B0008D90A0008710A000840
:1026A000040000001C0000200500180005001800B0
:1026B00005001800002000400080000000140140C8
:1026C00000140140001401401A0000002000002006
:0826D00000127A000000000076
:040000050800018569
:00000001FF
